:040000008A11112828
:10000800FE00030EF1000408F2000A08F300831250
:1000180003137F08F4008A154D2C8A15142A7030B2
:10002800831603138F04C330860010308312031322
:100038008600831603139B01213085000830831244
:10004800031385008B170B170B100C1080308316C9
:10005800031381000B1135308312031390007511BF
:10006800C701C801D001831603130C14FF30920096
:100078000C308312031397007F30950005309200EF
:100088008C1022309400C03083160313940083121E
:1000980003138C11831603138C1583120313D101D8
:1000A8000314D10D8316031301138B100B168A1139
:1000B800F4278A118A1114268A1183120313CC019A
:1000C800CB017510C101C2010330BB003B08D00051
:1000D8006D286400751D71287228792A751183129C
:1000E80003134C08031D792880284B084C02031879
:1000F8007E287F2883288028053092008328BF0126
:10010800C0014008803AFF0087307F02031D8E2817
:10011800D0303F02031C912892289428AB28AB28A2
:100128006400013083120313BF070318C00A0030AC
:10013800C0074008803AFF0087307F02031DA628C9
:10014800D0303F02031CA928AA289428AB28831280
:100158000313BF01C0014008803AFF0093307F02BB
:10016800031DB82888303F02031CBB28BC28BE28C2
:10017800D528D5286400013083120313BF0703185C
:10018800C00A0030C0074008803AFF0093307F0261
:10019800031DD02888303F02031CD328D428BE284A
:1001A800D5288A15A9238A11831203132808123E19
:1001B800BD0029080318013E003EBE008A11F4273D
:1001C8008A11831203134B08031DEB28FA284208EF
:1001D800803ABB003E08803A3B02031DF5283D08E3
:1001E80041020318F828F9280329FA28831203136F
:1001F8003E08C201C2073D08C101C1070329831295
:1002080003134208BC004108BB000430FF003C0D4A
:10021800BC0CBB0CFF0B0B29FF303B05C5000F3096
:100228003C05C6000F304105C30000304205C4003C
:100238006430A6000030A7004608A901A9074508B0
:10024800A801A8078A1514278A1183120313260800
:10025800BB003B08CF006430A0000030A100460876
:10026800A301A3074508A201A2078A155F258A11E1
:10027800831203132108C601C6072008C501C50754
:100288000A30A6000030A7004608A901A9074508BA
:10029800A801A8078A1514278A11831203132608B0
:1002A800BB003B08CE000A30A0000030A100460881
:1002B800A301A3074508A201A2078A155F258A1191
:1002C800831203132108C601C6072008C501C50704
:1002D8001030A6000030A7004408A101A107430878
:1002E800A001A0070A30A2000030A3008A157D23D0
:1002F8008A11831203132108A901A9072008A8015C
:10030800A8078A1514278A11831203132608BB002D
:100318003B08CD000030AE000030AF000030B00028
:100328000030B1004E08BB00BC013B08B2003C08DD
:10033800B3000030B4000030B5008A1162248A117D
:10034800183083120313AE000030AF000030B00045
:100358000030B1004608B301B3074508B201B2073F
:100368000130B4000030B5008A1162248A1130309F
:1003780083120313AE000030AF000030B00000302D
:10038800B1004D08BB00BC013B08B2003C08B300FB
:100398000030B4000030B5008A1162248A1101309F
:1003A80083120313BB003B08CC074C083C3A031DDF
:1003B800DE29DF29EE29CC010130BB003B08CB0741
:1003C8004B08053A031DE929EA29EE297514CB01E2
:1003D800EE29EE292C30B0000030B1000430B20014
:1003E8000030B3004B08BB00BC013B08B4003C081C
:1003F800B5000030B6000030B7008A11A2238A1178
:10040800373083120313A7000030A8000430A90076
:100418000030AA000130AB000030AC008A152F264E
:100428008A113C3083120313B0000030B10004304D
:10043800B2000030B3000A30A6000030A7004C0814
:10044800BB00BC013B08A8003C08A9008A1514277A
:100458008A11831203132708B501B5072608B401CA
:10046800B4070030B6000030B7008A11A2238A1101
:10047800483083120313B0000030B1000430B200DA
:100488000030B3000A30A0000030A1004C08BB00C7
:10049800BC013B08A2003C08A3008A155F258A110D
:1004A800831203132108B501B5072008B401B40766
:1004B8000030B6000030B7008A11A2238A11033039
:1004C800831203134B02031C6A2A6B2A792A4C1CD9
:1004D8006E2A6F2A732A8A15E7218A11792A8A15C2
:1004E800EC218A11792A792A792A83120313480878
:1004F80047040319802A812A932AC701C801373083
:10050800A7000030A8000430A9000030AA0000307D
:10051800AB000030AC008A152F268A11932A751C6F
:10052800962A972A6D288A1506228A118F308316F3
:1005380003138F05630000007030831603138F04C4
:10054800751083120313C101C2018A1114268A117E
:10055800033083120313BB003B08D0006D286D28BD
:100568006D288A111128831203132708063EA30059
:1005780028080318013E003EA4002908013EA500F2
:100588002A080318013E003EA6008A1522228A1175
:10059800831203132B08031DD22AFE2AAC01AD01D6
:1005A8002D08803AFF0080307F02031DDD2A0A30C3
:1005B8002C02031CE02AE12AE32A2C2B2C2BC03026
:1005C8008A1545228A11013083120313AC070318D8
:1005D800AD0A0030AD072D08803AFF0080307F0259
:1005E800031DF82A0A302C02031CFB2AFC2AE32AE2
:1005F8002C2B2C2B83120313AC01AD012D08803A50
:10060800FF0080307F02031D0B2B0A302C02031CD5
:100618000E2B0F2B112B2C2B2C2B00308A1545223F
:100628008A11013083120313AC070318AD0A003096
:10063800AD072D08803AFF0080307F02031D262B6E
:100648000A302C02031C292B2A2B112B2C2B2C2B88
:10065800831203132708053EA30028080318013E48
:10066800003EA4002908023EA5002A080318013EFE
:10067800003EA6008A1522228A11831203132B0832
:10068800031D472B732BAC01AD012D08803AFF00E9
:1006980080307F02031D522B0A302C02031C552B7D
:1006A800562B582BA12BA12B03308A1545228A11D2
:1006B800013083120313AC070318AD0A0030AD07ED
:1006C8002D08803AFF0080307F02031D6D2B0A3011
:1006D8002C02031C702B712B582BA12BA12B8312DE
:1006E8000313AC01AD012D08803AFF0080307F0272
:1006F800031D802B0A302C02031C832B842B862B92
:10070800A12BA12B00308A1545228A1101308312B2
:100718000313AC070318AD0A0030AD072D08803A63
:10072800FF0080307F02031D9B2B0A302C02031C24
:100738009E2B9F2B862BA12BA12B08008312031322
:100748003408013E84008A1500208A11B800380850
:10075800BA003108A801A8073008A701A70733087D
:10076800AA01AA073208A901A9073A088039B800DE
:100778003808AB003A080239B9003908AC008A15C4
:1007880009248A11831203133008063EA700310892
:100798000318013E003EA8003308AA01AA07320840
:1007A800A901A9073A084039B8003808AB008A15EA
:1007B80029238A11831203133008063EA700310843
:1007C8000318013E003EA8003208013EA900330884
:1007D8000318013E003EAA003A082039B80038083C
:1007E800AB008A1553238A11831203133008023E83
:1007F800A70031080318013E003EA8003208013E58
:10080800A90033080318013E003EAA003A0810392F
:10081800B8003808AB000430B9003908AC008A15B4
:10082800D7238A11831203133108A801A8073008B7
:10083800A701A7073208013EA90033080318013EA3
:10084800003EAA003A080839B8003808AB008A15F3
:1008580053238A11831203133108A801A80730080B
:10086800A701A7073308AA01AA073208A901A907FF
:100878003A080439B8003808AB008A1529238A11C8
:10088800831203133008093EA70031080318013EFC
:10089800003EA8003208013EA90033080318013EB3
:1008A800003EAA003608B8003808AB000230B9008C
:1008B8003908AC008A15D7238A110800831203135C
:1008C8003208013E84008A1500208A11B6003608D5
:1008D800B7002F08A801A8072E08A701A707310805
:1008E800AA01AA073008A901A90737088039B60064
:1008F8003608AB008A15A0268A11831203132F0825
:10090800A801A8072E08A701A7073108AA01AA0766
:100918003008A901A90737084039B6003608AB00E6
:100928008A117C278A11831203132F08A801A807AC
:100938002E08A701A7073108AA01AA073008A901AC
:10094800A90737082039B6003608AB008A119A255E
:100958008A11831203132F08A801A8072E08A701DC
:10096800A7073108AA01AA073008A901A90737086B
:100978001039B6003608AB008A158A278A11831207
:1009880003132F08A801A8072E08A701A7073108F5
:10099800AA01AA073008A901A90737080839B6002B
:1009A8003608AB008A1104278A11831203132F0813
:1009B800A801A8072E08A701A7073108AA01AA07B6
:1009C8003008A901A90737080439B6003608AB0072
:1009D8008A118C268A11831203132F08A801A807ED
:1009E8002E08A701A7073108AA01AA073008A901FC
:1009F800A90737080239B6003608AB008A11B722B2
:100A08008A11831203132F08A801A8072E08A7012B
:100A1800A7073108AA01AA073008A901A9073408BD
:100A2800B6003608AB008A15A5248A11080083127F
:100A38000313A301051283160313051246308A1502
:100A480057228A1183160313051605308A15572273
:100A58008A1183120313A401A5012508803AFF0017
:100A680080307F02031D3A2D46302402031C3D2DA1
:100A78003E2D402D642D642D83120313051A452D38
:100A8800462D4A2DA3010314A30D642D0A308A159F
:100A980057228A11013083120313A4070318A50AE9
:100AA8000030A5072508803AFF0080307F02031D2B
:100AB8005F2D46302402031C622D632D402D642DCA
:100AC80083120313A401A5012508803AFF00803092
:100AD8007F02031D712D64302402031C742D752DB3
:100AE800772D992D992D83120313051E7C2D7D2DAD
:100AF8007F2D992D992D0A308A1557228A11013098
:100B080083120313A4070318A50A0030A5072508B4
:100B1800803AFF0080307F02031D942D6430240248
:100B2800031C972D982D772D992D080083120313F8
:100B380027080F3EA30028080318013E003EA40022
:100B48002908023EA5002A080318013E003EA60017
:100B58008A1522228A11831203132B08031DB52D2F
:100B6800C62DFF308A1545228A11FF308A15452285
:100B78008A11FF308A1545228A11FF308A154522CD
:100B88008A11D62D00308A1545228A1100308A151F
:100B980045228A1100308A1545228A1100308A15AB
:100BA80045228A118312031327080E3EA300280842
:100BB8000318013E003EA4002908033EA5002A08A8
:100BC8000318013E003EA6008A1522228A118312CC
:100BD80003132B08031DF12D022E3F308A154522E1
:100BE8008A113F308A1545228A113F308A154522DD
:100BF8008A111F308A1545228A11132E00308A1552
:100C080045228A1100308A1545228A1100308A153A
:100C180045228A1100308A1545228A11132E0800B0
:100C28008312031305178517E830A0000330A100CD
:100C38008A1583228A11831203130513E830A00052
:100C48000330A1008A1583228A1183120313051722
:100C580021308A1533228A1190308A1533228A115D
:100C680020308A1533228A110C308A1533228A11D2
:100C78008A15C7258A11003083120313AE0000308D
:100C8800AF000030B0000030B1000830B2000030D2
:100C9800B3000130B4000030B5008A1162248A1113
:100CA800183083120313AE000030AF000030B000DC
:100CB8000030B1000830B2000030B3000130B40099
:100CC8000030B5008A1162248A1130308312031370
:100CD800AE000030AF000030B0000030B100083086
:100CE800B2000030B3000130B4000030B5008A1102
:100CF80062248A11483083120313A7000030A80029
:100D08000230A9000030AA008A1500258A110800BF
:100D1800831203132708033EA30028080318013E83
:100D2800003EA4002A08A601A6072908A501A507D0
:100D38008A1522228A11831203132B08031DA52E5C
:100D4800B62EF8308A1545228A11FC308A154522BC
:100D58008A11FC308A1545228A11FC308A154522F1
:100D68008A11C62E00308A1545228A1100308A154C
:100D780045228A1100308A1545228A1100308A15C9
:100D880045228A11831203132708023EA30028086C
:100D98000318013E003EA4002908013EA5002A08C8
:100DA8000318013E003EA6008A1522228A118312EA
:100DB80003132B08031DE12EF22EFF308A1545225E
:100DC8008A11FF308A1545228A11FF308A1545227B
:100DD8008A11FF308A1545228A11032F00308A159F
:100DE80045228A1100308A1545228A1100308A1559
:100DF80045228A1100308A1545228A11032F0800DE
:100E0800831203132708013EA30028080318013E94
:100E1800003EA4002908023EA5002A080318013E46
:100E2800003EA6008A1522228A11831203132B087A
:100E3800031D1F2F302FFF308A1545228A11FF30DE
:100E48008A1545228A11FF308A1545228A11FF30FA
:100E58008A1545228A11402F00308A1545228A11A9
:100E680000308A1545228A1100308A1545228A11D8
:100E780000308A1545228A11831203132808A40119
:100E8800A4072708A301A3072908033EA5002A08E9
:100E98000318013E003EA6008A1522228A118312F9
:100EA80003132B08031D592F6A2F1F308A1545225B
:100EB8008A113F308A1545228A113F308A1545220A
:100EC8008A113F308A1545228A117B2F00308A15F6
:100ED80045228A1100308A1545228A1100308A1568
:100EE80045228A1100308A1545228A117B2F080075
:100EF800831203132708113EA30028080318013E94
:100F0800003EA4002A08A601A6072908A501A507EE
:100F18008A1522228A11831203132B08031D952F89
:100F2800A62FFC308A1545228A11FC308A154522E5
:100F38008A11FC308A1545228A11F8308A15452213
:100F48008A11B62F00308A1545228A1100308A1579
:100F580045228A1100308A1545228A1100308A15E7
:100F680045228A11831203132708103EA30028087C
:100F78000318013E003EA4002908013EA5002A08E6
:100F88000318013E003EA6008A1522228A11831208
:100F980003132B08031DD12FE22FFF308A1545229A
:100FA8008A11FF308A1545228A11FF308A15452299
:100FB8008A11FF308A1545228A11F32F00308A15CD
:100FC80045228A1100308A1545228A1100308A1577
:100FD80045228A1100308A1545228A11F32F08000C
:100FE8008A111B258A11CC308A15BB228A114430FC
:100FF8008A15BB228A11080008308A000408840A6E
:1010080082070034FC346034DA34F2346634B6349F
:0A101800BE34E034FE34F634023436
:1013CE000D308A1533228A1508000C308A15332207
:1013DE008A15080064008001840A0406031900348B
:1013EE000406F22983120313A000FD295108031DE0
:1013FE00012AFD29851320089300D101080024300D
:10140E008A1533228A15643083120313A00000302C
:10141E00A1008A1583228A150800F501F601F7014D
:10142E00F80183133D30840051308A15F1218A155D
:10143E0083018A1113288312031323087F398038FE
:10144E008A1533228A15831203132508073940386B
:10145E008A1533228A15080083120313A200323034
:10146E00A0000030A1008A1583228A15831203136F
:10147E00851022088A15F9218A1508008312031394
:10148E00A2000A30A0000030A1008A1583228A151E
:10149E0083120313851422088A15F9218A15080070
:1014AE0083120313A100A201642A64000130831287
:1014BE000313A0002008A207642A21082202031C9D
:1014CE00692A6A2A5C2A6B2A0800831203132308EE
:1014DE007F3980388A1533228A1583120313250823
:1014EE00073940388A1533228A15831203132708C9
:1014FE008A1545228A150800852A852AFF3083120F
:10150E000313A0070318A10AFF30A1072108803A90
:10151E00FF0080307F02031D962A0130200203183F
:10152E00992A9A2A852A9B2A0800831203130512E8
:10153E008316031305126400831603130516640045
:10154E00640064006400003083120313051A013036
:10155E00A3002308A40007308A1557228A15831288
:10156E0003132408BA2A080083120313A500A60148
:10157E0008302602031CC42AC52AC72ADB2ADB2A06
:10158E00250801398A15DC228A15031083120313EC
:10159E00A50C0130A4002408A60708302602031C5F
:1015AE00D92ADA2AC72ADB2A080083120313A300DA
:1015BE000512831603130512640083120313A30886
:1015CE00031DEA2AEB2AEF2A831603130512F32AC8
:1015DE00831603130516F32A07308A1557228A1528
:1015EE0083160313051601308A1557228A15080033
:1015FE0083120313A601A70108302702031C082B30
:10160E00092B0B2B262B262B0310A60C8A159C229E
:10161E008A15003A0319142B152B192B8312031359
:10162E00A617192B013083120313A5002508A7074F
:10163E0008302702031C242B252B0B2B262B2608C8
:10164E00282B0800831203132808A401A4072708D7
:10165E00A301A3072A08A601A6072908A501A50725
:10166E008A1522228A15831203132B08031D402B81
:10167E00492BFF308A1545228A15FF308A154522DF
:10168E008A15522B00308A1545228A1500308A158C
:10169E0045228A15522B0800831203132808A40131
:1016AE00A4072708A301A3072A08A601A60729084D
:1016BE00A501A5078A1522228A15831203132B086A
:1016CE00031D6A2B732B3F308A1545228A153F3036
:1016DE008A1545228A157C2B00308A1545228A15DB
:1016EE0000308A1545228A157C2B080083120313BD
:1016FE00A401A501822B201C852B862B8C2B220866
:10170E00A4070318A50A2308A50701300310A20D8C
:10171E00A30DFF3E031D8D2B01300310A10CA00C59
:10172E00FF3E031D942B21082004031D9F2BA02B8D
:10173E00822BA12B2508A101A1072408A001A00737
:10174E00A82B08008A111B258A15CC308A15BB22BE
:10175E008A15BE308A15BB228A158A15FF228A1574
:10176E0083120313AA00AB012A08AC002B08AD00AC
:10177E008A15FF228A1583120313AA00AB012A08C9
:10178E00AB00AA012A08AC070318AD0A2B08AD0757
:10179E002D08A901A9072C08A801A807D62B080017
:1017AE00831203132808A401A4072708A301A30783
:1017BE002A08A601A6072908A501A5078A1522222F
:1017CE008A1583120313AE01012C2B08031DF02B77
:1017DE00F52B30308A1545228A15FA2B00308A15E2
:1017EE0045228A15FA2B013083120313AD002D0802
:1017FE00AE07012C2C082E02031C062C072CEC2BFA
:10180E00082C0800831203132B08031D0F2C142C15
:10181E000330AD002D08AE00162CAE01162C2C0890
:10182E00031D1A2C1F2CC030AD002D08AE041F2C2A
:10183E002708023EA30028080318013E003EA4001C
:10184E002A08A601A6072908A501A5078A1522229E
:10185E008A1583120313AF0104302F02031C382C98
:10186E00392C3B2C4C2C4C2C2E088A1545228A15D3
:10187E00013083120313AD002D08AF0704302F0281
:10188E00031C4A2C4B2C3B2C4C2C08008B1C502C34
:10189E00512C522C8B108C1D552C562C602C8C11CF
:1018AE001308F0007008F600D1010314D10D85174E
:1018BE00602C0B1D632C642C652C0B110C1C682CDE
:1018CE00692C8F2C0C109E308F005A308E000130F8
:1018DE00F0007008D00750080A3A031D772C782CB8
:1018EE007B2C7515D001862C5008073A031D802CD1
:1018FE00812C862C0130C7000030C800862C500881
:10190E00033A031D8B2C8C2C8F2C92018F2C8F2C39
:10191E008C1C922C932C942C8C100C1F972C982C86
:10192E009A2C0C139A2C7408FF0073088A00720804
:10193E008400710E8300FE0E7E0E090083120313C7
:10194E002708133EA30028080318013E003EA400FA
:10195E002908033EA5002A080318013E003EA600F2
:10196E008A1522228A15831203132B08031DC02CFD
:10197E00D12C30308A1545228A1578308A154522A9
:10198E008A1578308A1545228A1530308A154522F7
:10199E008A15FF2C83120313AC01AD012D08803A7A
:1019AE00FF0080307F02031DDE2C04302C02031C4E
:1019BE00E12CE22CE42CFF2CFF2C00308A15452262
:1019CE008A15013083120313AC070318AD0A0030D9
:1019DE00AD072D08803AFF0080307F02031DF92CE1
:1019EE0004302C02031CFC2CFD2CE42CFF2CFF2CB1
:1019FE000800831203132808A401A4072708A301D3
:101A0E00A3072A08A601A6072908A501A5078A1576
:101A1E0022228A1506308A1545228A1509308A1522
:101A2E0045228A1509308A1545228A15C6308A152F
:101A3E0045228A15E0308A1545228A1560308A15AE
:101A4E0045228A1560308A1545228A1560308A151E
:101A5E0045228A15831203132708023EA300280885
:101A6E000318013E003EA4002908013EA5002A08E5
:101A7E000318013E003EA6008A1522228A150F3059
:101A8E008A1545228A153F308A1545228A157030EF
:101A9E008A1545228A1560308A1545228A156030CE
:101AAE008A1545228A1560308A1545228A15080046
:101ABE0083120313A601A31F652D662D6F2DA20998
:101ACE00A309A20A0319A30AA6010314A60D6F2DDA
:101ADE00A11F722D732D792DA009A109A00A03193A
:101AEE00A10A792D2108200403197E2D7F2DB52DF5
:101AFE00A5010314A50D8F2D01300310A00DA10D0E
:101B0E00FF3E031D842D0130A4002408A5078F2D50
:101B1E00A11F922D932D832D952D952D21082302F6
:101B2E00031D9B2D20082202031C9E2D9F2DA62DEA
:101B3E002008A2022108031CA303A302A62D013034
:101B4E000310A10CA00CFF3E031DA72D0130A50212
:101B5E00031DB22DB32D952DB52DB52D2608031DC4
:101B6E00B92DBF2DA209A309A20A0319A30ABF2DDD
:101B7E002308A101A1072208A001A007C62D080075
:101B8E0083120313AB01AC012C08803AFF008030A6
:101B9E007F02031DD42D06302B02031CD72DD82D0A
:101BAE00DA2D2E2E2E2E83120313A901AA012A0836
:101BBE00803AFF0080307F02031DE72D543029024A
:101BCE00031CEA2DEB2DED2D182E182E8312031368
:101BDE002A08A401A4072908A301A3072C08A6011B
:101BEE00A6072B08A501A5070030A7000030A80006
:101BFE008A156C228A15013083120313A907031864
:101C0E00AA0A0030AA072A08803AFF0080307F0215
:101C1E00031D132E54302902031C162E172EED2DE4
:101C2E00182E013083120313AB070318AC0A0030D1
:101C3E00AC072C08803AFF0080307F02031D292E4E
:101C4E0006302B02031C2C2E2D2EDA2D2E2E0800E4
:101C5E00831203132C082B040319362E372E6A2EEB
:101C6E002808A401A4072708A301A3072A08A60190
:101C7E00A6072908A501A5078A1522228A1518305C
:101C8E008A1545228A1518308A1545228A1583121F
:101C9E0003132808A401A4072708A301A3072908F2
:101CAE00013EA5002A080318013E003EA6008A1533
:101CBE0022228A1506308A1545228A1506308A1583
:101CCE0045228A159F2E831203132808A401A40708
:101CDE002708A301A3072A08A601A6072908A5011C
:101CEE00A5078A1522228A1500308A1545228A15E3
:101CFE0000308A1545228A15831203132808A40181
:101D0E00A4072708A301A3072908013EA5002A0856
:101D1E000318013E003EA6008A1522228A150030C5
:101D2E008A1545228A1500308A1545228A159F2E5E
:101D3E000800831203132708073EA3002808031880
:101D4E00013E003EA4002A08A601A6072908A50107
:101D5E00A5078A1522228A15831203132B08031D49
:101D6E00B92EE52EAC01AD012D08803AFF00803072
:101D7E007F02031DC42E0A302C02031CC72EC82E50
:101D8E00CA2E132F132F1E308A1545228A150130A5
:101D9E0083120313AC070318AD0A0030AD072D08EC
:101DAE00803AFF0080307F02031DDF2E0A302C02A6
:101DBE00031CE22EE32ECA2E132F132F83120313AE
:101DCE00AC01AD012D08803AFF0080307F02031D6B
:101DDE00F22E0A302C02031CF52EF62EF82E132F9F
:101DEE00132F00308A1545228A15013083120313F2
:101DFE00AC070318AD0A0030AD072D08803AFF007E
:101E0E0080307F02031D0D2F0A302C02031C102F71
:101E1E00112FF82E132F132F080083120313AC016A
:101E2E00A71F1A2F1B2F242FA609A709A60A0319CD
:101E3E00A70AAC010314AC0D242FA91F272F282F9E
:101E4E00322FA809A909A80A0319A90A0130AA0064
:101E5E002A08AC06322FAD01AE012708260403195D
:101E6E00392F3A2F782FAB010314AB0D4A2F0130C7
:101E7E000310A60DA70DFF3E031D3F2F0130AA0034
:101E8E002A08AB074A2FA71F4D2F4E2F3E2F502F3C
:101E9E00502F01300310AD0DAE0DFF3E031D512F1F
:101EAE0027082902031D5D2F26082802031C602F18
:101EBE00612F692F2608A8022708031CA903A9026F
:101ECE002D14692F01300310A70CA60CFF3E031D25
:101EDE006A2F0130AB02031D752F762F502F782FEE
:101EEE00782F2C08031D7C2F822FAD09AE09AD0A69
:101EFE000319AE0A822F2E08A701A7072D08A601E7
:101F0E00A607892F0800831203132708043EA30097
:101F1E0028080318013E003EA4002908033EA50030
:101F2E002A080318013E003EA6008A1522228A15B1
:101F3E00831203132B08031DA52FD12FAC01AD0166
:101F4E002D08803AFF0080307F02031DB02F0A302B
:101F5E002C02031CB32FB42FB62FFF2FFF2F783078
:101F6E008A1545228A15013083120313AC07031814
:101F7E00AD0A0030AD072D08803AFF0080307F0299
:101F8E00031DCB2F0A302C02031CCE2FCF2FB62FC2
:101F9E00FF2FFF2F83120313AC01AD012D08803AE2
:101FAE00FF0080307F02031DDE2F0A302C02031C3F
:101FBE00E12FE22FE42FFF2FFF2F00308A1545224D
:101FCE008A15013083120313AC070318AD0A0030D3
:101FDE00AD072D08803AFF0080307F02031DF92FD8
:101FEE000A302C02031CFC2FFD2FE42FFF2FFF2F96
:021FFE000800D9
:02400E0038E791
:00000001FF
